{
  "_format": "hh-sol-artifact-1",
  "contractName": "Ballot",
  "sourceName": "contracts/Ballot.sol",
  "abi": [
    {
      "inputs": [
        {
          "internalType": "bytes32[]",
          "name": "proposalNames",
          "type": "bytes32[]"
        },
        {
          "internalType": "address",
          "name": "_tokenContract",
          "type": "address"
        },
        {
          "internalType": "uint256",
          "name": "_targetBlockNumber",
          "type": "uint256"
        }
      ],
      "stateMutability": "nonpayable",
      "type": "constructor"
    },
    {
      "inputs": [
        {
          "internalType": "uint256",
          "name": "",
          "type": "uint256"
        }
      ],
      "name": "proposals",
      "outputs": [
        {
          "internalType": "bytes32",
          "name": "name",
          "type": "bytes32"
        },
        {
          "internalType": "uint256",
          "name": "voteCount",
          "type": "uint256"
        }
      ],
      "stateMutability": "view",
      "type": "function"
    },
    {
      "inputs": [],
      "name": "proposalsLength",
      "outputs": [
        {
          "internalType": "uint256",
          "name": "",
          "type": "uint256"
        }
      ],
      "stateMutability": "view",
      "type": "function"
    },
    {
      "inputs": [],
      "name": "targetBlockNumber",
      "outputs": [
        {
          "internalType": "uint256",
          "name": "",
          "type": "uint256"
        }
      ],
      "stateMutability": "view",
      "type": "function"
    },
    {
      "inputs": [],
      "name": "tokenContract",
      "outputs": [
        {
          "internalType": "contract IMyVotingToken",
          "name": "",
          "type": "address"
        }
      ],
      "stateMutability": "view",
      "type": "function"
    },
    {
      "inputs": [
        {
          "internalType": "uint256",
          "name": "proposal",
          "type": "uint256"
        },
        {
          "internalType": "uint256",
          "name": "amount",
          "type": "uint256"
        }
      ],
      "name": "vote",
      "outputs": [],
      "stateMutability": "nonpayable",
      "type": "function"
    },
    {
      "inputs": [
        {
          "internalType": "address",
          "name": "account",
          "type": "address"
        }
      ],
      "name": "votingPower",
      "outputs": [
        {
          "internalType": "uint256",
          "name": "",
          "type": "uint256"
        }
      ],
      "stateMutability": "view",
      "type": "function"
    },
    {
      "inputs": [
        {
          "internalType": "address",
          "name": "",
          "type": "address"
        }
      ],
      "name": "votingPowerSpent",
      "outputs": [
        {
          "internalType": "uint256",
          "name": "",
          "type": "uint256"
        }
      ],
      "stateMutability": "view",
      "type": "function"
    },
    {
      "inputs": [],
      "name": "winnerName",
      "outputs": [
        {
          "internalType": "bytes32",
          "name": "winnerName_",
          "type": "bytes32"
        }
      ],
      "stateMutability": "view",
      "type": "function"
    },
    {
      "inputs": [],
      "name": "winningProposal",
      "outputs": [
        {
          "internalType": "uint256",
          "name": "winningProposal_",
          "type": "uint256"
        }
      ],
      "stateMutability": "view",
      "type": "function"
    }
  ],
  "bytecode": "0x60806040523480156200001157600080fd5b5060405162000e3a38038062000e3a833981810160405281019062000037919062000383565b816000806101000a81548173ffffffffffffffffffffffffffffffffffffffff021916908373ffffffffffffffffffffffffffffffffffffffff1602179055508060028190555060005b8351811015620001155760016040518060400160405280868481518110620000ae57620000ad620003fe565b5b60200260200101518152602001600081525090806001815401808255809150506001900390600052602060002090600202016000909190919091506000820151816000015560208201518160010155505080806200010c906200045c565b91505062000081565b50505050620004a9565b6000604051905090565b600080fd5b600080fd5b600080fd5b6000601f19601f8301169050919050565b7f4e487b7100000000000000000000000000000000000000000000000000000000600052604160045260246000fd5b620001838262000138565b810181811067ffffffffffffffff82111715620001a557620001a462000149565b5b80604052505050565b6000620001ba6200011f565b9050620001c8828262000178565b919050565b600067ffffffffffffffff821115620001eb57620001ea62000149565b5b602082029050602081019050919050565b600080fd5b6000819050919050565b620002168162000201565b81146200022257600080fd5b50565b60008151905062000236816200020b565b92915050565b6000620002536200024d84620001cd565b620001ae565b90508083825260208201905060208402830185811115620002795762000278620001fc565b5b835b81811015620002a6578062000291888262000225565b8452602084019350506020810190506200027b565b5050509392505050565b600082601f830112620002c857620002c762000133565b5b8151620002da8482602086016200023c565b91505092915050565b600073ffffffffffffffffffffffffffffffffffffffff82169050919050565b60006200031082620002e3565b9050919050565b620003228162000303565b81146200032e57600080fd5b50565b600081519050620003428162000317565b92915050565b6000819050919050565b6200035d8162000348565b81146200036957600080fd5b50565b6000815190506200037d8162000352565b92915050565b6000806000606084860312156200039f576200039e62000129565b5b600084015167ffffffffffffffff811115620003c057620003bf6200012e565b5b620003ce86828701620002b0565b9350506020620003e18682870162000331565b9250506040620003f4868287016200036c565b9150509250925092565b7f4e487b7100000000000000000000000000000000000000000000000000000000600052603260045260246000fd5b7f4e487b7100000000000000000000000000000000000000000000000000000000600052601160045260246000fd5b6000620004698262000348565b91507fffffffffffffffffffffffffffffffffffffffffffffffffffffffffffffffff82036200049e576200049d6200042d565b5b600182019050919050565b61098180620004b96000396000f3fe608060405234801561001057600080fd5b50600436106100935760003560e01c8063609ff1bd11610066578063609ff1bd14610123578063a720035114610141578063b384abef14610171578063c07473f61461018d578063e2ba53f0146101bd57610093565b8063013cf08b146100985780632a8cd29e146100c957806344c7c867146100e757806355a373d614610105575b600080fd5b6100b260048036038101906100ad9190610527565b6101db565b6040516100c092919061057c565b60405180910390f35b6100d161020f565b6040516100de91906105a5565b60405180910390f35b6100ef610215565b6040516100fc91906105a5565b60405180910390f35b61010d610222565b60405161011a919061063f565b60405180910390f35b61012b610246565b60405161013891906105a5565b60405180910390f35b61015b60048036038101906101569190610698565b6102ce565b60405161016891906105a5565b60405180910390f35b61018b600480360381019061018691906106c5565b6102e6565b005b6101a760048036038101906101a29190610698565b6103c7565b6040516101b491906105a5565b60405180910390f35b6101c56104b8565b6040516101d29190610705565b60405180910390f35b600181815481106101eb57600080fd5b90600052602060002090600202016000915090508060000154908060010154905082565b60025481565b6000600180549050905090565b60008054906101000a900473ffffffffffffffffffffffffffffffffffffffff1681565b6000806000905060005b6001805490508110156102c957816001828154811061027257610271610720565b5b90600052602060002090600202016001015411156102b6576001818154811061029e5761029d610720565b5b90600052602060002090600202016001015491508092505b80806102c19061077e565b915050610250565b505090565b60036020528060005260406000206000915090505481565b806102f0336103c7565b1015610331576040517f08c379a000000000000000000000000000000000000000000000000000000000815260040161032890610849565b60405180910390fd5b806001838154811061034657610345610720565b5b906000526020600020906002020160010160008282546103669190610869565b9250508190555080600360003373ffffffffffffffffffffffffffffffffffffffff1673ffffffffffffffffffffffffffffffffffffffff16815260200190815260200160002060008282546103bc9190610869565b925050819055505050565b6000600360008373ffffffffffffffffffffffffffffffffffffffff1673ffffffffffffffffffffffffffffffffffffffff1681526020019081526020016000205460008054906101000a900473ffffffffffffffffffffffffffffffffffffffff1673ffffffffffffffffffffffffffffffffffffffff16633a46b1a8846002546040518363ffffffff1660e01b81526004016104669291906108ac565b602060405180830381865afa158015610483573d6000803e3d6000fd5b505050506040513d601f19601f820116820180604052508101906104a791906108ea565b6104b19190610917565b9050919050565b600060016104c4610246565b815481106104d5576104d4610720565b5b906000526020600020906002020160000154905090565b600080fd5b6000819050919050565b610504816104f1565b811461050f57600080fd5b50565b600081359050610521816104fb565b92915050565b60006020828403121561053d5761053c6104ec565b5b600061054b84828501610512565b91505092915050565b6000819050919050565b61056781610554565b82525050565b610576816104f1565b82525050565b6000604082019050610591600083018561055e565b61059e602083018461056d565b9392505050565b60006020820190506105ba600083018461056d565b92915050565b600073ffffffffffffffffffffffffffffffffffffffff82169050919050565b6000819050919050565b60006106056106006105fb846105c0565b6105e0565b6105c0565b9050919050565b6000610617826105ea565b9050919050565b60006106298261060c565b9050919050565b6106398161061e565b82525050565b60006020820190506106546000830184610630565b92915050565b6000610665826105c0565b9050919050565b6106758161065a565b811461068057600080fd5b50565b6000813590506106928161066c565b92915050565b6000602082840312156106ae576106ad6104ec565b5b60006106bc84828501610683565b91505092915050565b600080604083850312156106dc576106db6104ec565b5b60006106ea85828601610512565b92505060206106fb85828601610512565b9150509250929050565b600060208201905061071a600083018461055e565b92915050565b7f4e487b7100000000000000000000000000000000000000000000000000000000600052603260045260246000fd5b7f4e487b7100000000000000000000000000000000000000000000000000000000600052601160045260246000fd5b6000610789826104f1565b91507fffffffffffffffffffffffffffffffffffffffffffffffffffffffffffffffff82036107bb576107ba61074f565b5b600182019050919050565b600082825260208201905092915050565b7f596f75206861766520696e73756666696369656e7420766f74696e6720706f7760008201527f6572000000000000000000000000000000000000000000000000000000000000602082015250565b60006108336022836107c6565b915061083e826107d7565b604082019050919050565b6000602082019050818103600083015261086281610826565b9050919050565b6000610874826104f1565b915061087f836104f1565b92508282019050808211156108975761089661074f565b5b92915050565b6108a68161065a565b82525050565b60006040820190506108c1600083018561089d565b6108ce602083018461056d565b9392505050565b6000815190506108e4816104fb565b92915050565b600060208284031215610900576108ff6104ec565b5b600061090e848285016108d5565b91505092915050565b6000610922826104f1565b915061092d836104f1565b92508282039050818111156109455761094461074f565b5b9291505056fea2646970667358221220a2fe7b6f18b5c666ad38e81d94a7e7b1db97bab499c1ebf7a10920ebb78523c664736f6c63430008120033",
  "linkReferences": {},
  "deployedLinkReferences": {}
}