{
    "_format": "hh-sol-artifact-1",
    "contractName": "MyERC20Token",
    "sourceName": "contracts/ballotToken.sol",
    "abi": [
        {
            "inputs": [],
            "stateMutability": "nonpayable",
            "type": "constructor"
        },
        {
            "inputs": [],
            "name": "InvalidShortString",
            "type": "error"
        },
        {
            "inputs": [
                {
                    "internalType": "string",
                    "name": "str",
                    "type": "string"
                }
            ],
            "name": "StringTooLong",
            "type": "error"
        },
        {
            "anonymous": false,
            "inputs": [
                {
                    "indexed": true,
                    "internalType": "address",
                    "name": "owner",
                    "type": "address"
                },
                {
                    "indexed": true,
                    "internalType": "address",
                    "name": "spender",
                    "type": "address"
                },
                {
                    "indexed": false,
                    "internalType": "uint256",
                    "name": "value",
                    "type": "uint256"
                }
            ],
            "name": "Approval",
            "type": "event"
        },
        {
            "anonymous": false,
            "inputs": [
                {
                    "indexed": true,
                    "internalType": "address",
                    "name": "delegator",
                    "type": "address"
                },
                {
                    "indexed": true,
                    "internalType": "address",
                    "name": "fromDelegate",
                    "type": "address"
                },
                {
                    "indexed": true,
                    "internalType": "address",
                    "name": "toDelegate",
                    "type": "address"
                }
            ],
            "name": "DelegateChanged",
            "type": "event"
        },
        {
            "anonymous": false,
            "inputs": [
                {
                    "indexed": true,
                    "internalType": "address",
                    "name": "delegate",
                    "type": "address"
                },
                {
                    "indexed": false,
                    "internalType": "uint256",
                    "name": "previousBalance",
                    "type": "uint256"
                },
                {
                    "indexed": false,
                    "internalType": "uint256",
                    "name": "newBalance",
                    "type": "uint256"
                }
            ],
            "name": "DelegateVotesChanged",
            "type": "event"
        },
        {
            "anonymous": false,
            "inputs": [],
            "name": "EIP712DomainChanged",
            "type": "event"
        },
        {
            "anonymous": false,
            "inputs": [
                {
                    "indexed": true,
                    "internalType": "address",
                    "name": "from",
                    "type": "address"
                },
                {
                    "indexed": true,
                    "internalType": "address",
                    "name": "to",
                    "type": "address"
                },
                {
                    "indexed": false,
                    "internalType": "uint256",
                    "name": "value",
                    "type": "uint256"
                }
            ],
            "name": "Transfer",
            "type": "event"
        },
        {
            "inputs": [],
            "name": "CLOCK_MODE",
            "outputs": [
                {
                    "internalType": "string",
                    "name": "",
                    "type": "string"
                }
            ],
            "stateMutability": "view",
            "type": "function"
        },
        {
            "inputs": [],
            "name": "DOMAIN_SEPARATOR",
            "outputs": [
                {
                    "internalType": "bytes32",
                    "name": "",
                    "type": "bytes32"
                }
            ],
            "stateMutability": "view",
            "type": "function"
        },
        {
            "inputs": [
                {
                    "internalType": "address",
                    "name": "owner",
                    "type": "address"
                },
                {
                    "internalType": "address",
                    "name": "spender",
                    "type": "address"
                }
            ],
            "name": "allowance",
            "outputs": [
                {
                    "internalType": "uint256",
                    "name": "",
                    "type": "uint256"
                }
            ],
            "stateMutability": "view",
            "type": "function"
        },
        {
            "inputs": [
                {
                    "internalType": "address",
                    "name": "spender",
                    "type": "address"
                },
                {
                    "internalType": "uint256",
                    "name": "amount",
                    "type": "uint256"
                }
            ],
            "name": "approve",
            "outputs": [
                {
                    "internalType": "bool",
                    "name": "",
                    "type": "bool"
                }
            ],
            "stateMutability": "nonpayable",
            "type": "function"
        },
        {
            "inputs": [
                {
                    "internalType": "address",
                    "name": "account",
                    "type": "address"
                }
            ],
            "name": "balanceOf",
            "outputs": [
                {
                    "internalType": "uint256",
                    "name": "",
                    "type": "uint256"
                }
            ],
            "stateMutability": "view",
            "type": "function"
        },
        {
            "inputs": [
                {
                    "internalType": "uint256",
                    "name": "amount",
                    "type": "uint256"
                }
            ],
            "name": "burn",
            "outputs": [],
            "stateMutability": "nonpayable",
            "type": "function"
        },
        {
            "inputs": [
                {
                    "internalType": "address",
                    "name": "account",
                    "type": "address"
                },
                {
                    "internalType": "uint256",
                    "name": "amount",
                    "type": "uint256"
                }
            ],
            "name": "burnFrom",
            "outputs": [],
            "stateMutability": "nonpayable",
            "type": "function"
        },
        {
            "inputs": [
                {
                    "internalType": "address",
                    "name": "account",
                    "type": "address"
                },
                {
                    "internalType": "uint32",
                    "name": "pos",
                    "type": "uint32"
                }
            ],
            "name": "checkpoints",
            "outputs": [
                {
                    "components": [
                        {
                            "internalType": "uint32",
                            "name": "fromBlock",
                            "type": "uint32"
                        },
                        {
                            "internalType": "uint224",
                            "name": "votes",
                            "type": "uint224"
                        }
                    ],
                    "internalType": "struct ERC20Votes.Checkpoint",
                    "name": "",
                    "type": "tuple"
                }
            ],
            "stateMutability": "view",
            "type": "function"
        },
        {
            "inputs": [],
            "name": "clock",
            "outputs": [
                {
                    "internalType": "uint48",
                    "name": "",
                    "type": "uint48"
                }
            ],
            "stateMutability": "view",
            "type": "function"
        },
        {
            "inputs": [],
            "name": "decimals",
            "outputs": [
                {
                    "internalType": "uint8",
                    "name": "",
                    "type": "uint8"
                }
            ],
            "stateMutability": "view",
            "type": "function"
        },
        {
            "inputs": [
                {
                    "internalType": "address",
                    "name": "spender",
                    "type": "address"
                },
                {
                    "internalType": "uint256",
                    "name": "subtractedValue",
                    "type": "uint256"
                }
            ],
            "name": "decreaseAllowance",
            "outputs": [
                {
                    "internalType": "bool",
                    "name": "",
                    "type": "bool"
                }
            ],
            "stateMutability": "nonpayable",
            "type": "function"
        },
        {
            "inputs": [
                {
                    "internalType": "address",
                    "name": "delegatee",
                    "type": "address"
                }
            ],
            "name": "delegate",
            "outputs": [],
            "stateMutability": "nonpayable",
            "type": "function"
        },
        {
            "inputs": [
                {
                    "internalType": "address",
                    "name": "delegatee",
                    "type": "address"
                },
                {
                    "internalType": "uint256",
                    "name": "nonce",
                    "type": "uint256"
                },
                {
                    "internalType": "uint256",
                    "name": "expiry",
                    "type": "uint256"
                },
                {
                    "internalType": "uint8",
                    "name": "v",
                    "type": "uint8"
                },
                {
                    "internalType": "bytes32",
                    "name": "r",
                    "type": "bytes32"
                },
                {
                    "internalType": "bytes32",
                    "name": "s",
                    "type": "bytes32"
                }
            ],
            "name": "delegateBySig",
            "outputs": [],
            "stateMutability": "nonpayable",
            "type": "function"
        },
        {
            "inputs": [
                {
                    "internalType": "address",
                    "name": "account",
                    "type": "address"
                }
            ],
            "name": "delegates",
            "outputs": [
                {
                    "internalType": "address",
                    "name": "",
                    "type": "address"
                }
            ],
            "stateMutability": "view",
            "type": "function"
        },
        {
            "inputs": [],
            "name": "eip712Domain",
            "outputs": [
                {
                    "internalType": "bytes1",
                    "name": "fields",
                    "type": "bytes1"
                },
                {
                    "internalType": "string",
                    "name": "name",
                    "type": "string"
                },
                {
                    "internalType": "string",
                    "name": "version",
                    "type": "string"
                },
                {
                    "internalType": "uint256",
                    "name": "chainId",
                    "type": "uint256"
                },
                {
                    "internalType": "address",
                    "name": "verifyingContract",
                    "type": "address"
                },
                {
                    "internalType": "bytes32",
                    "name": "salt",
                    "type": "bytes32"
                },
                {
                    "internalType": "uint256[]",
                    "name": "extensions",
                    "type": "uint256[]"
                }
            ],
            "stateMutability": "view",
            "type": "function"
        },
        {
            "inputs": [
                {
                    "internalType": "uint256",
                    "name": "timepoint",
                    "type": "uint256"
                }
            ],
            "name": "getPastTotalSupply",
            "outputs": [
                {
                    "internalType": "uint256",
                    "name": "",
                    "type": "uint256"
                }
            ],
            "stateMutability": "view",
            "type": "function"
        },
        {
            "inputs": [
                {
                    "internalType": "address",
                    "name": "account",
                    "type": "address"
                },
                {
                    "internalType": "uint256",
                    "name": "timepoint",
                    "type": "uint256"
                }
            ],
            "name": "getPastVotes",
            "outputs": [
                {
                    "internalType": "uint256",
                    "name": "",
                    "type": "uint256"
                }
            ],
            "stateMutability": "view",
            "type": "function"
        },
        {
            "inputs": [
                {
                    "internalType": "address",
                    "name": "account",
                    "type": "address"
                }
            ],
            "name": "getVotes",
            "outputs": [
                {
                    "internalType": "uint256",
                    "name": "",
                    "type": "uint256"
                }
            ],
            "stateMutability": "view",
            "type": "function"
        },
        {
            "inputs": [
                {
                    "internalType": "address",
                    "name": "spender",
                    "type": "address"
                },
                {
                    "internalType": "uint256",
                    "name": "addedValue",
                    "type": "uint256"
                }
            ],
            "name": "increaseAllowance",
            "outputs": [
                {
                    "internalType": "bool",
                    "name": "",
                    "type": "bool"
                }
            ],
            "stateMutability": "nonpayable",
            "type": "function"
        },
        {
            "inputs": [
                {
                    "internalType": "address",
                    "name": "to",
                    "type": "address"
                },
                {
                    "internalType": "uint256",
                    "name": "amount",
                    "type": "uint256"
                }
            ],
            "name": "mint",
            "outputs": [],
            "stateMutability": "nonpayable",
            "type": "function"
        },
        {
            "inputs": [],
            "name": "name",
            "outputs": [
                {
                    "internalType": "string",
                    "name": "",
                    "type": "string"
                }
            ],
            "stateMutability": "view",
            "type": "function"
        },
        {
            "inputs": [
                {
                    "internalType": "address",
                    "name": "owner",
                    "type": "address"
                }
            ],
            "name": "nonces",
            "outputs": [
                {
                    "internalType": "uint256",
                    "name": "",
                    "type": "uint256"
                }
            ],
            "stateMutability": "view",
            "type": "function"
        },
        {
            "inputs": [
                {
                    "internalType": "address",
                    "name": "account",
                    "type": "address"
                }
            ],
            "name": "numCheckpoints",
            "outputs": [
                {
                    "internalType": "uint32",
                    "name": "",
                    "type": "uint32"
                }
            ],
            "stateMutability": "view",
            "type": "function"
        },
        {
            "inputs": [
                {
                    "internalType": "address",
                    "name": "owner",
                    "type": "address"
                },
                {
                    "internalType": "address",
                    "name": "spender",
                    "type": "address"
                },
                {
                    "internalType": "uint256",
                    "name": "value",
                    "type": "uint256"
                },
                {
                    "internalType": "uint256",
                    "name": "deadline",
                    "type": "uint256"
                },
                {
                    "internalType": "uint8",
                    "name": "v",
                    "type": "uint8"
                },
                {
                    "internalType": "bytes32",
                    "name": "r",
                    "type": "bytes32"
                },
                {
                    "internalType": "bytes32",
                    "name": "s",
                    "type": "bytes32"
                }
            ],
            "name": "permit",
            "outputs": [],
            "stateMutability": "nonpayable",
            "type": "function"
        },
        {
            "inputs": [],
            "name": "symbol",
            "outputs": [
                {
                    "internalType": "string",
                    "name": "",
                    "type": "string"
                }
            ],
            "stateMutability": "view",
            "type": "function"
        },
        {
            "inputs": [],
            "name": "totalSupply",
            "outputs": [
                {
                    "internalType": "uint256",
                    "name": "",
                    "type": "uint256"
                }
            ],
            "stateMutability": "view",
            "type": "function"
        },
        {
            "inputs": [
                {
                    "internalType": "address",
                    "name": "to",
                    "type": "address"
                },
                {
                    "internalType": "uint256",
                    "name": "amount",
                    "type": "uint256"
                }
            ],
            "name": "transfer",
            "outputs": [
                {
                    "internalType": "bool",
                    "name": "",
                    "type": "bool"
                }
            ],
            "stateMutability": "nonpayable",
            "type": "function"
        },
        {
            "inputs": [
                {
                    "internalType": "address",
                    "name": "from",
                    "type": "address"
                },
                {
                    "internalType": "address",
                    "name": "to",
                    "type": "address"
                },
                {
                    "internalType": "uint256",
                    "name": "amount",
                    "type": "uint256"
                }
            ],
            "name": "transferFrom",
            "outputs": [
                {
                    "internalType": "bool",
                    "name": "",
                    "type": "bool"
                }
            ],
            "stateMutability": "nonpayable",
            "type": "function"
        }
    ],
    "bytecode": "0x6101606040523480156200001257600080fd5b506040518060400160405280601181526020017f456e636f646542616c6c6f74546f6b656e000000000000000000000000000000815250806040518060400160405280600181526020017f31000000000000000000000000000000000000000000000000000000000000008152506040518060400160405280601181526020017f456e636f646542616c6c6f74546f6b656e0000000000000000000000000000008152506040518060400160405280600381526020017f45425400000000000000000000000000000000000000000000000000000000008152508160039081620000fd91906200057e565b5080600490816200010f91906200057e565b5050506200012d600583620001d360201b620011a81790919060201c565b610120818152505062000150600682620001d360201b620011a81790919060201c565b6101408181525050818051906020012060e08181525050808051906020012061010081815250504660a081815250506200018f6200023060201b60201c565b608081815250503073ffffffffffffffffffffffffffffffffffffffff1660c08173ffffffffffffffffffffffffffffffffffffffff168152505050505062000888565b6000602083511015620001f957620001f1836200028d60201b60201c565b90506200022a565b826200021083620002fa60201b620011ec1760201c565b60000190816200022191906200057e565b5060ff60001b90505b92915050565b60007f8b73c3c69bb8fe3d512ecc4cf759cc79239f7b179b0ffacaa9a75d522b39400f60e05161010051463060405160200162000272959493929190620006d6565b60405160208183030381529060405280519060200120905090565b600080829050601f81511115620002dd57826040517f305a27a9000000000000000000000000000000000000000000000000000000008152600401620002d49190620007c2565b60405180910390fd5b805181620002eb9062000818565b60001c1760001b915050919050565b6000819050919050565b600081519050919050565b7f4e487b7100000000000000000000000000000000000000000000000000000000600052604160045260246000fd5b7f4e487b7100000000000000000000000000000000000000000000000000000000600052602260045260246000fd5b600060028204905060018216806200038657607f821691505b6020821081036200039c576200039b6200033e565b5b50919050565b60008190508160005260206000209050919050565b60006020601f8301049050919050565b600082821b905092915050565b600060088302620004067fffffffffffffffffffffffffffffffffffffffffffffffffffffffffffffffff82620003c7565b620004128683620003c7565b95508019841693508086168417925050509392505050565b6000819050919050565b6000819050919050565b60006200045f6200045962000453846200042a565b62000434565b6200042a565b9050919050565b6000819050919050565b6200047b836200043e565b620004936200048a8262000466565b848454620003d4565b825550505050565b600090565b620004aa6200049b565b620004b781848462000470565b505050565b5b81811015620004df57620004d3600082620004a0565b600181019050620004bd565b5050565b601f8211156200052e57620004f881620003a2565b6200050384620003b7565b8101602085101562000513578190505b6200052b6200052285620003b7565b830182620004bc565b50505b505050565b600082821c905092915050565b6000620005536000198460080262000533565b1980831691505092915050565b60006200056e838362000540565b9150826002028217905092915050565b620005898262000304565b67ffffffffffffffff811115620005a557620005a46200030f565b5b620005b182546200036d565b620005be828285620004e3565b600060209050601f831160018114620005f65760008415620005e1578287015190505b620005ed858262000560565b8655506200065d565b601f1984166200060686620003a2565b60005b82811015620006305784890151825560018201915060208501945060208101905062000609565b868310156200065057848901516200064c601f89168262000540565b8355505b6001600288020188555050505b505050505050565b6000819050919050565b6200067a8162000665565b82525050565b6200068b816200042a565b82525050565b600073ffffffffffffffffffffffffffffffffffffffff82169050919050565b6000620006be8262000691565b9050919050565b620006d081620006b1565b82525050565b600060a082019050620006ed60008301886200066f565b620006fc60208301876200066f565b6200070b60408301866200066f565b6200071a606083018562000680565b620007296080830184620006c5565b9695505050505050565b600082825260208201905092915050565b60005b838110156200076457808201518184015260208101905062000747565b60008484015250505050565b6000601f19601f8301169050919050565b60006200078e8262000304565b6200079a818562000733565b9350620007ac81856020860162000744565b620007b78162000770565b840191505092915050565b60006020820190508181036000830152620007de818462000781565b905092915050565b600081519050919050565b6000819050602082019050919050565b60006200080f825162000665565b80915050919050565b60006200082582620007e6565b826200083184620007f1565b90506200083e8162000801565b9250602082101562000881576200087c7fffffffffffffffffffffffffffffffffffffffffffffffffffffffffffffffff83602003600802620003c7565b831692505b5050919050565b60805160a05160c05160e051610100516101205161014051614691620008e36000396000610a6701526000610a3301526000611cca01526000611ca9015260006116cd015260006117230152600061174c01526146916000f3fe608060405234801561001057600080fd5b50600436106101c45760003560e01c806370a08231116100f95780639ab24eb011610097578063c3cda52011610071578063c3cda5201461056f578063d505accf1461058b578063dd62ed3e146105a7578063f1127ed8146105d7576101c4565b80639ab24eb0146104df578063a457c2d71461050f578063a9059cbb1461053f576101c4565b806384b0196e116100d357806384b0196e1461044f5780638e539e8c1461047357806391ddadf4146104a357806395d89b41146104c1576101c4565b806370a08231146103d357806379cc6790146104035780637ecebe001461041f576101c4565b80633a46b1a8116101665780634bf5d7e9116101405780634bf5d7e914610339578063587cde1e146103575780635c19a95c146103875780636fcfff45146103a3576101c4565b80633a46b1a8146102d157806340c10f191461030157806342966c681461031d576101c4565b806323b872dd116101a257806323b872dd14610235578063313ce567146102655780633644e5151461028357806339509351146102a1576101c4565b806306fdde03146101c9578063095ea7b3146101e757806318160ddd14610217575b600080fd5b6101d1610607565b6040516101de9190612d06565b60405180910390f35b61020160048036038101906101fc9190612dc1565b610699565b60405161020e9190612e1c565b60405180910390f35b61021f6106bc565b60405161022c9190612e46565b60405180910390f35b61024f600480360381019061024a9190612e61565b6106c6565b60405161025c9190612e1c565b60405180910390f35b61026d6106f5565b60405161027a9190612ed0565b60405180910390f35b61028b6106fe565b6040516102989190612f04565b60405180910390f35b6102bb60048036038101906102b69190612dc1565b61070d565b6040516102c89190612e1c565b60405180910390f35b6102eb60048036038101906102e69190612dc1565b610744565b6040516102f89190612e46565b60405180910390f35b61031b60048036038101906103169190612dc1565b6107e7565b005b61033760048036038101906103329190612f1f565b6107f5565b005b610341610809565b60405161034e9190612d06565b60405180910390f35b610371600480360381019061036c9190612f4c565b610897565b60405161037e9190612f88565b60405180910390f35b6103a1600480360381019061039c9190612f4c565b610900565b005b6103bd60048036038101906103b89190612f4c565b610914565b6040516103ca9190612fc2565b60405180910390f35b6103ed60048036038101906103e89190612f4c565b610968565b6040516103fa9190612e46565b60405180910390f35b61041d60048036038101906104189190612dc1565b6109b0565b005b61043960048036038101906104349190612f4c565b6109d0565b6040516104469190612e46565b60405180910390f35b610457610a20565b60405161046a97969594939291906130d6565b60405180910390f35b61048d60048036038101906104889190612f1f565b610b22565b60405161049a9190612e46565b60405180910390f35b6104ab610b87565b6040516104b8919061317b565b60405180910390f35b6104c9610b97565b6040516104d69190612d06565b60405180910390f35b6104f960048036038101906104f49190612f4c565b610c29565b6040516105069190612e46565b60405180910390f35b61052960048036038101906105249190612dc1565b610d31565b6040516105369190612e1c565b60405180910390f35b61055960048036038101906105549190612dc1565b610da8565b6040516105669190612e1c565b60405180910390f35b610589600480360381019061058491906131ee565b610dcb565b005b6105a560048036038101906105a0919061327b565b610ecf565b005b6105c160048036038101906105bc919061331d565b611011565b6040516105ce9190612e46565b60405180910390f35b6105f160048036038101906105ec9190613389565b611098565b6040516105fe919061343e565b60405180910390f35b60606003805461061690613488565b80601f016020809104026020016040519081016040528092919081815260200182805461064290613488565b801561068f5780601f106106645761010080835404028352916020019161068f565b820191906000526020600020905b81548152906001019060200180831161067257829003601f168201915b5050505050905090565b6000806106a46111f6565b90506106b18185856111fe565b600191505092915050565b6000600254905090565b6000806106d16111f6565b90506106de8582856113c7565b6106e9858585611453565b60019150509392505050565b60006012905090565b60006107086116c9565b905090565b6000806107186111f6565b905061073981858561072a8589611011565b61073491906134e8565b6111fe565b600191505092915050565b600061074e610b87565b65ffffffffffff168210610797576040517f08c379a000000000000000000000000000000000000000000000000000000000815260040161078e90613568565b60405180910390fd5b6107df600a60008573ffffffffffffffffffffffffffffffffffffffff1673ffffffffffffffffffffffffffffffffffffffff16815260200190815260200160002083611780565b905092915050565b6107f182826118c8565b5050565b6108066108006111f6565b826118d6565b50565b606043610814610b87565b65ffffffffffff161461085c576040517f08c379a0000000000000000000000000000000000000000000000000000000008152600401610853906135d4565b60405180910390fd5b6040518060400160405280601d81526020017f6d6f64653d626c6f636b6e756d6265722666726f6d3d64656661756c74000000815250905090565b6000600960008373ffffffffffffffffffffffffffffffffffffffff1673ffffffffffffffffffffffffffffffffffffffff16815260200190815260200160002060009054906101000a900473ffffffffffffffffffffffffffffffffffffffff169050919050565b61091161090b6111f6565b826118e4565b50565b6000610961600a60008473ffffffffffffffffffffffffffffffffffffffff1673ffffffffffffffffffffffffffffffffffffffff168152602001908152602001600020805490506119fe565b9050919050565b60008060008373ffffffffffffffffffffffffffffffffffffffff1673ffffffffffffffffffffffffffffffffffffffff168152602001908152602001600020549050919050565b6109c2826109bc6111f6565b836113c7565b6109cc82826118d6565b5050565b6000610a19600760008473ffffffffffffffffffffffffffffffffffffffff1673ffffffffffffffffffffffffffffffffffffffff168152602001908152602001600020611a51565b9050919050565b600060608060008060006060610a6060057f0000000000000000000000000000000000000000000000000000000000000000611a5f90919063ffffffff16565b610a9460067f0000000000000000000000000000000000000000000000000000000000000000611a5f90919063ffffffff16565b46306000801b600067ffffffffffffffff811115610ab557610ab46135f4565b5b604051908082528060200260200182016040528015610ae35781602001602082028036833780820191505090505b507f0f00000000000000000000000000000000000000000000000000000000000000959493929190965096509650965096509650965090919293949596565b6000610b2c610b87565b65ffffffffffff168210610b75576040517f08c379a0000000000000000000000000000000000000000000000000000000008152600401610b6c90613568565b60405180910390fd5b610b80600b83611780565b9050919050565b6000610b9243611b0f565b905090565b606060048054610ba690613488565b80601f0160208091040260200160405190810160405280929190818152602001828054610bd290613488565b8015610c1f5780601f10610bf457610100808354040283529160200191610c1f565b820191906000526020600020905b815481529060010190602001808311610c0257829003601f168201915b5050505050905090565b600080600a60008473ffffffffffffffffffffffffffffffffffffffff1673ffffffffffffffffffffffffffffffffffffffff16815260200190815260200160002080549050905060008114610d0857600a60008473ffffffffffffffffffffffffffffffffffffffff1673ffffffffffffffffffffffffffffffffffffffff1681526020019081526020016000206001820381548110610ccd57610ccc613623565b5b9060005260206000200160000160049054906101000a90047bffffffffffffffffffffffffffffffffffffffffffffffffffffffff16610d0b565b60005b7bffffffffffffffffffffffffffffffffffffffffffffffffffffffff16915050919050565b600080610d3c6111f6565b90506000610d4a8286611011565b905083811015610d8f576040517f08c379a0000000000000000000000000000000000000000000000000000000008152600401610d86906136c4565b60405180910390fd5b610d9c82868684036111fe565b60019250505092915050565b600080610db36111f6565b9050610dc0818585611453565b600191505092915050565b83421115610e0e576040517f08c379a0000000000000000000000000000000000000000000000000000000008152600401610e0590613730565b60405180910390fd5b6000610e70610e687fe48329057bfd03d55e49b547132e39cffd9c1820ad7b9d4c5307691425d15adf898989604051602001610e4d9493929190613750565b60405160208183030381529060405280519060200120611b64565b858585611b7e565b9050610e7b81611ba9565b8614610ebc576040517f08c379a0000000000000000000000000000000000000000000000000000000008152600401610eb3906137e1565b60405180910390fd5b610ec681886118e4565b50505050505050565b83421115610f12576040517f08c379a0000000000000000000000000000000000000000000000000000000008152600401610f099061384d565b60405180910390fd5b60007f6e71edae12b1b97f4d1f60370fef10105fa2faae0126114a169c64845d6126c9888888610f418c611ba9565b89604051602001610f579695949392919061386d565b6040516020818303038152906040528051906020012090506000610f7a82611b64565b90506000610f8a82878787611b7e565b90508973ffffffffffffffffffffffffffffffffffffffff168173ffffffffffffffffffffffffffffffffffffffff1614610ffa576040517f08c379a0000000000000000000000000000000000000000000000000000000008152600401610ff19061391a565b60405180910390fd5b6110058a8a8a6111fe565b50505050505050505050565b6000600160008473ffffffffffffffffffffffffffffffffffffffff1673ffffffffffffffffffffffffffffffffffffffff16815260200190815260200160002060008373ffffffffffffffffffffffffffffffffffffffff1673ffffffffffffffffffffffffffffffffffffffff16815260200190815260200160002054905092915050565b6110a0612c38565b600a60008473ffffffffffffffffffffffffffffffffffffffff1673ffffffffffffffffffffffffffffffffffffffff1681526020019081526020016000208263ffffffff16815481106110f7576110f6613623565b5b906000526020600020016040518060400160405290816000820160009054906101000a900463ffffffff1663ffffffff1663ffffffff1681526020016000820160049054906101000a90047bffffffffffffffffffffffffffffffffffffffffffffffffffffffff167bffffffffffffffffffffffffffffffffffffffffffffffffffffffff167bffffffffffffffffffffffffffffffffffffffffffffffffffffffff1681525050905092915050565b60006020835110156111c4576111bd83611c07565b90506111e6565b826111ce836111ec565b60000190816111dd9190613ae6565b5060ff60001b90505b92915050565b6000819050919050565b600033905090565b600073ffffffffffffffffffffffffffffffffffffffff168373ffffffffffffffffffffffffffffffffffffffff160361126d576040517f08c379a000000000000000000000000000000000000000000000000000000000815260040161126490613c2a565b60405180910390fd5b600073ffffffffffffffffffffffffffffffffffffffff168273ffffffffffffffffffffffffffffffffffffffff16036112dc576040517f08c379a00000000000000000000000000000000000000000000000000000000081526004016112d390613cbc565b60405180910390fd5b80600160008573ffffffffffffffffffffffffffffffffffffffff1673ffffffffffffffffffffffffffffffffffffffff16815260200190815260200160002060008473ffffffffffffffffffffffffffffffffffffffff1673ffffffffffffffffffffffffffffffffffffffff168152602001908152602001600020819055508173ffffffffffffffffffffffffffffffffffffffff168373ffffffffffffffffffffffffffffffffffffffff167f8c5be1e5ebec7d5bd14f71427d1e84f3dd0314c0f7b2291e5b200ac8c7c3b925836040516113ba9190612e46565b60405180910390a3505050565b60006113d38484611011565b90507fffffffffffffffffffffffffffffffffffffffffffffffffffffffffffffffff811461144d578181101561143f576040517f08c379a000000000000000000000000000000000000000000000000000000000815260040161143690613d28565b60405180910390fd5b61144c84848484036111fe565b5b50505050565b600073ffffffffffffffffffffffffffffffffffffffff168373ffffffffffffffffffffffffffffffffffffffff16036114c2576040517f08c379a00000000000000000000000000000000000000000000000000000000081526004016114b990613dba565b60405180910390fd5b600073ffffffffffffffffffffffffffffffffffffffff168273ffffffffffffffffffffffffffffffffffffffff1603611531576040517f08c379a000000000000000000000000000000000000000000000000000000000815260040161152890613e4c565b60405180910390fd5b61153c838383611c6f565b60008060008573ffffffffffffffffffffffffffffffffffffffff1673ffffffffffffffffffffffffffffffffffffffff168152602001908152602001600020549050818110156115c2576040517f08c379a00000000000000000000000000000000000000000000000000000000081526004016115b990613ede565b60405180910390fd5b8181036000808673ffffffffffffffffffffffffffffffffffffffff1673ffffffffffffffffffffffffffffffffffffffff16815260200190815260200160002081905550816000808573ffffffffffffffffffffffffffffffffffffffff1673ffffffffffffffffffffffffffffffffffffffff168152602001908152602001600020600082825401925050819055508273ffffffffffffffffffffffffffffffffffffffff168473ffffffffffffffffffffffffffffffffffffffff167fddf252ad1be2c89b69c2b068fc378daa952ba7f163c4a11628f55a4df523b3ef846040516116b09190612e46565b60405180910390a36116c3848484611c74565b50505050565b60007f000000000000000000000000000000000000000000000000000000000000000073ffffffffffffffffffffffffffffffffffffffff163073ffffffffffffffffffffffffffffffffffffffff1614801561174557507f000000000000000000000000000000000000000000000000000000000000000046145b15611772577f0000000000000000000000000000000000000000000000000000000000000000905061177d565b61177a611c84565b90505b90565b6000808380549050905060008082905060058311156117f65760006117a484611d1a565b846117af9190613efe565b9050856117bc8883611e13565b60000160009054906101000a900463ffffffff1663ffffffff1611156117e4578091506117f4565b6001816117f191906134e8565b92505b505b5b8082101561185657600061180b8383611e28565b9050856118188883611e13565b60000160009054906101000a900463ffffffff1663ffffffff16111561184057809150611850565b60018161184d91906134e8565b92505b506117f7565b6000811461189c5761186b8660018303611e13565b60000160049054906101000a90047bffffffffffffffffffffffffffffffffffffffffffffffffffffffff1661189f565b60005b7bffffffffffffffffffffffffffffffffffffffffffffffffffffffff16935050505092915050565b6118d28282611e4e565b5050565b6118e08282611edb565b5050565b60006118ef83610897565b905060006118fc84610968565b905082600960008673ffffffffffffffffffffffffffffffffffffffff1673ffffffffffffffffffffffffffffffffffffffff16815260200190815260200160002060006101000a81548173ffffffffffffffffffffffffffffffffffffffff021916908373ffffffffffffffffffffffffffffffffffffffff1602179055508273ffffffffffffffffffffffffffffffffffffffff168273ffffffffffffffffffffffffffffffffffffffff168573ffffffffffffffffffffffffffffffffffffffff167f3134e8a2e6d97e929a7e54011ea5485d7d196dd5f0ba4d4ef95803e8e3fc257f60405160405180910390a46119f8828483611ef9565b50505050565b600063ffffffff8016821115611a49576040517f08c379a0000000000000000000000000000000000000000000000000000000008152600401611a4090613fa4565b60405180910390fd5b819050919050565b600081600001549050919050565b606060ff60001b8314611a7c57611a75836120f2565b9050611b09565b818054611a8890613488565b80601f0160208091040260200160405190810160405280929190818152602001828054611ab490613488565b8015611b015780601f10611ad657610100808354040283529160200191611b01565b820191906000526020600020905b815481529060010190602001808311611ae457829003601f168201915b505050505090505b92915050565b600065ffffffffffff8016821115611b5c576040517f08c379a0000000000000000000000000000000000000000000000000000000008152600401611b5390614036565b60405180910390fd5b819050919050565b6000611b77611b716116c9565b83612166565b9050919050565b6000806000611b8f878787876121a7565b91509150611b9c81612289565b8192505050949350505050565b600080600760008473ffffffffffffffffffffffffffffffffffffffff1673ffffffffffffffffffffffffffffffffffffffff1681526020019081526020016000209050611bf681611a51565b9150611c01816123ef565b50919050565b600080829050601f81511115611c5457826040517f305a27a9000000000000000000000000000000000000000000000000000000008152600401611c4b9190612d06565b60405180910390fd5b805181611c6090614086565b60001c1760001b915050919050565b505050565b611c7f838383612405565b505050565b60007f8b73c3c69bb8fe3d512ecc4cf759cc79239f7b179b0ffacaa9a75d522b39400f7f00000000000000000000000000000000000000000000000000000000000000007f00000000000000000000000000000000000000000000000000000000000000004630604051602001611cff9594939291906140ed565b60405160208183030381529060405280519060200120905090565b6000808203611d2c5760009050611e0e565b60006001611d3984612430565b901c6001901b90506001818481611d5357611d52614140565b5b048201901c90506001818481611d6c57611d6b614140565b5b048201901c90506001818481611d8557611d84614140565b5b048201901c90506001818481611d9e57611d9d614140565b5b048201901c90506001818481611db757611db6614140565b5b048201901c90506001818481611dd057611dcf614140565b5b048201901c90506001818481611de957611de8614140565b5b048201901c9050611e0a81828581611e0457611e03614140565b5b04612511565b9150505b919050565b60008260005281602060002001905092915050565b60006002828418611e39919061416f565b828416611e4691906134e8565b905092915050565b611e58828261252a565b611e60612680565b7bffffffffffffffffffffffffffffffffffffffffffffffffffffffff16611e866106bc565b1115611ec7576040517f08c379a0000000000000000000000000000000000000000000000000000000008152600401611ebe90614212565b60405180910390fd5b611ed5600b6126a4836126ba565b50505050565b611ee58282612995565b611ef3600b612b62836126ba565b50505050565b8173ffffffffffffffffffffffffffffffffffffffff168373ffffffffffffffffffffffffffffffffffffffff1614158015611f355750600081115b156120ed57600073ffffffffffffffffffffffffffffffffffffffff168373ffffffffffffffffffffffffffffffffffffffff161461201357600080611fbc600a60008773ffffffffffffffffffffffffffffffffffffffff1673ffffffffffffffffffffffffffffffffffffffff168152602001908152602001600020612b62856126ba565b915091508473ffffffffffffffffffffffffffffffffffffffff167fdec2bacdd2f05b59de34da9b523dff8be42e5e38e818c82fdb0bae774387a7248383604051612008929190614232565b60405180910390a250505b600073ffffffffffffffffffffffffffffffffffffffff168273ffffffffffffffffffffffffffffffffffffffff16146120ec57600080612095600a60008673ffffffffffffffffffffffffffffffffffffffff1673ffffffffffffffffffffffffffffffffffffffff1681526020019081526020016000206126a4856126ba565b915091508373ffffffffffffffffffffffffffffffffffffffff167fdec2bacdd2f05b59de34da9b523dff8be42e5e38e818c82fdb0bae774387a72483836040516120e1929190614232565b60405180910390a250505b5b505050565b606060006120ff83612b78565b90506000602067ffffffffffffffff81111561211e5761211d6135f4565b5b6040519080825280601f01601f1916602001820160405280156121505781602001600182028036833780820191505090505b5090508181528360208201528092505050919050565b60006040517f190100000000000000000000000000000000000000000000000000000000000081528360028201528260228201526042812091505092915050565b6000807f7fffffffffffffffffffffffffffffff5d576e7357a4501ddfe92f46681b20a08360001c11156121e2576000600391509150612280565b600060018787878760405160008152602001604052604051612207949392919061425b565b6020604051602081039080840390855afa158015612229573d6000803e3d6000fd5b505050602060405103519050600073ffffffffffffffffffffffffffffffffffffffff168173ffffffffffffffffffffffffffffffffffffffff160361227757600060019250925050612280565b80600092509250505b94509492505050565b6000600481111561229d5761229c6142a0565b5b8160048111156122b0576122af6142a0565b5b03156123ec57600160048111156122ca576122c96142a0565b5b8160048111156122dd576122dc6142a0565b5b0361231d576040517f08c379a00000000000000000000000000000000000000000000000000000000081526004016123149061431b565b60405180910390fd5b60026004811115612331576123306142a0565b5b816004811115612344576123436142a0565b5b03612384576040517f08c379a000000000000000000000000000000000000000000000000000000000815260040161237b90614387565b60405180910390fd5b60036004811115612398576123976142a0565b5b8160048111156123ab576123aa6142a0565b5b036123eb576040517f08c379a00000000000000000000000000000000000000000000000000000000081526004016123e290614419565b60405180910390fd5b5b50565b6001816000016000828254019250508190555050565b612410838383612bc8565b61242b61241c84610897565b61242584610897565b83611ef9565b505050565b600080600090506000608084901c111561245257608083901c92506080810190505b6000604084901c111561246d57604083901c92506040810190505b6000602084901c111561248857602083901c92506020810190505b6000601084901c11156124a357601083901c92506010810190505b6000600884901c11156124be57600883901c92506008810190505b6000600484901c11156124d957600483901c92506004810190505b6000600284901c11156124f457600283901c92506002810190505b6000600184901c1115612508576001810190505b80915050919050565b60008183106125205781612522565b825b905092915050565b600073ffffffffffffffffffffffffffffffffffffffff168273ffffffffffffffffffffffffffffffffffffffff1603612599576040517f08c379a000000000000000000000000000000000000000000000000000000000815260040161259090614485565b60405180910390fd5b6125a560008383611c6f565b80600260008282546125b791906134e8565b92505081905550806000808473ffffffffffffffffffffffffffffffffffffffff1673ffffffffffffffffffffffffffffffffffffffff168152602001908152602001600020600082825401925050819055508173ffffffffffffffffffffffffffffffffffffffff16600073ffffffffffffffffffffffffffffffffffffffff167fddf252ad1be2c89b69c2b068fc378daa952ba7f163c4a11628f55a4df523b3ef836040516126689190612e46565b60405180910390a361267c60008383611c74565b5050565b60007bffffffffffffffffffffffffffffffffffffffffffffffffffffffff905090565b600081836126b291906134e8565b905092915050565b6000806000858054905090506000808214612780576126dc8760018403611e13565b6040518060400160405290816000820160009054906101000a900463ffffffff1663ffffffff1663ffffffff1681526020016000820160049054906101000a90047bffffffffffffffffffffffffffffffffffffffffffffffffffffffff167bffffffffffffffffffffffffffffffffffffffffffffffffffffffff167bffffffffffffffffffffffffffffffffffffffffffffffffffffffff16815250506127bc565b6040518060400160405280600063ffffffff16815260200160007bffffffffffffffffffffffffffffffffffffffffffffffffffffffff168152505b905080602001517bffffffffffffffffffffffffffffffffffffffffffffffffffffffff1693506127f184868863ffffffff16565b925060008211801561281b5750612806610b87565b65ffffffffffff16816000015163ffffffff16145b1561288c5761282983612bcd565b6128368860018503611e13565b60000160046101000a8154817bffffffffffffffffffffffffffffffffffffffffffffffffffffffff02191690837bffffffffffffffffffffffffffffffffffffffffffffffffffffffff16021790555061298b565b8660405180604001604052806128b06128a3610b87565b65ffffffffffff166119fe565b63ffffffff1681526020016128c486612bcd565b7bffffffffffffffffffffffffffffffffffffffffffffffffffffffff168152509080600181540180825580915050600190039060005260206000200160009091909190915060008201518160000160006101000a81548163ffffffff021916908363ffffffff16021790555060208201518160000160046101000a8154817bffffffffffffffffffffffffffffffffffffffffffffffffffffffff02191690837bffffffffffffffffffffffffffffffffffffffffffffffffffffffff16021790555050505b5050935093915050565b600073ffffffffffffffffffffffffffffffffffffffff168273ffffffffffffffffffffffffffffffffffffffff1603612a04576040517f08c379a00000000000000000000000000000000000000000000000000000000081526004016129fb90614517565b60405180910390fd5b612a1082600083611c6f565b60008060008473ffffffffffffffffffffffffffffffffffffffff1673ffffffffffffffffffffffffffffffffffffffff16815260200190815260200160002054905081811015612a96576040517f08c379a0000000000000000000000000000000000000000000000000000000008152600401612a8d906145a9565b60405180910390fd5b8181036000808573ffffffffffffffffffffffffffffffffffffffff1673ffffffffffffffffffffffffffffffffffffffff1681526020019081526020016000208190555081600260008282540392505081905550600073ffffffffffffffffffffffffffffffffffffffff168373ffffffffffffffffffffffffffffffffffffffff167fddf252ad1be2c89b69c2b068fc378daa952ba7f163c4a11628f55a4df523b3ef84604051612b499190612e46565b60405180910390a3612b5d83600084611c74565b505050565b60008183612b709190613efe565b905092915050565b60008060ff8360001c169050601f811115612bbf576040517fb3512b0c00000000000000000000000000000000000000000000000000000000815260040160405180910390fd5b80915050919050565b505050565b60007bffffffffffffffffffffffffffffffffffffffffffffffffffffffff8016821115612c30576040517f08c379a0000000000000000000000000000000000000000000000000000000008152600401612c279061463b565b60405180910390fd5b819050919050565b6040518060400160405280600063ffffffff16815260200160007bffffffffffffffffffffffffffffffffffffffffffffffffffffffff1681525090565b600081519050919050565b600082825260208201905092915050565b60005b83811015612cb0578082015181840152602081019050612c95565b60008484015250505050565b6000601f19601f8301169050919050565b6000612cd882612c76565b612ce28185612c81565b9350612cf2818560208601612c92565b612cfb81612cbc565b840191505092915050565b60006020820190508181036000830152612d208184612ccd565b905092915050565b600080fd5b600073ffffffffffffffffffffffffffffffffffffffff82169050919050565b6000612d5882612d2d565b9050919050565b612d6881612d4d565b8114612d7357600080fd5b50565b600081359050612d8581612d5f565b92915050565b6000819050919050565b612d9e81612d8b565b8114612da957600080fd5b50565b600081359050612dbb81612d95565b92915050565b60008060408385031215612dd857612dd7612d28565b5b6000612de685828601612d76565b9250506020612df785828601612dac565b9150509250929050565b60008115159050919050565b612e1681612e01565b82525050565b6000602082019050612e316000830184612e0d565b92915050565b612e4081612d8b565b82525050565b6000602082019050612e5b6000830184612e37565b92915050565b600080600060608486031215612e7a57612e79612d28565b5b6000612e8886828701612d76565b9350506020612e9986828701612d76565b9250506040612eaa86828701612dac565b9150509250925092565b600060ff82169050919050565b612eca81612eb4565b82525050565b6000602082019050612ee56000830184612ec1565b92915050565b6000819050919050565b612efe81612eeb565b82525050565b6000602082019050612f196000830184612ef5565b92915050565b600060208284031215612f3557612f34612d28565b5b6000612f4384828501612dac565b91505092915050565b600060208284031215612f6257612f61612d28565b5b6000612f7084828501612d76565b91505092915050565b612f8281612d4d565b82525050565b6000602082019050612f9d6000830184612f79565b92915050565b600063ffffffff82169050919050565b612fbc81612fa3565b82525050565b6000602082019050612fd76000830184612fb3565b92915050565b60007fff0000000000000000000000000000000000000000000000000000000000000082169050919050565b61301281612fdd565b82525050565b600081519050919050565b600082825260208201905092915050565b6000819050602082019050919050565b61304d81612d8b565b82525050565b600061305f8383613044565b60208301905092915050565b6000602082019050919050565b600061308382613018565b61308d8185613023565b935061309883613034565b8060005b838110156130c95781516130b08882613053565b97506130bb8361306b565b92505060018101905061309c565b5085935050505092915050565b600060e0820190506130eb600083018a613009565b81810360208301526130fd8189612ccd565b905081810360408301526131118188612ccd565b90506131206060830187612e37565b61312d6080830186612f79565b61313a60a0830185612ef5565b81810360c083015261314c8184613078565b905098975050505050505050565b600065ffffffffffff82169050919050565b6131758161315a565b82525050565b6000602082019050613190600083018461316c565b92915050565b61319f81612eb4565b81146131aa57600080fd5b50565b6000813590506131bc81613196565b92915050565b6131cb81612eeb565b81146131d657600080fd5b50565b6000813590506131e8816131c2565b92915050565b60008060008060008060c0878903121561320b5761320a612d28565b5b600061321989828a01612d76565b965050602061322a89828a01612dac565b955050604061323b89828a01612dac565b945050606061324c89828a016131ad565b935050608061325d89828a016131d9565b92505060a061326e89828a016131d9565b9150509295509295509295565b600080600080600080600060e0888a03121561329a57613299612d28565b5b60006132a88a828b01612d76565b97505060206132b98a828b01612d76565b96505060406132ca8a828b01612dac565b95505060606132db8a828b01612dac565b94505060806132ec8a828b016131ad565b93505060a06132fd8a828b016131d9565b92505060c061330e8a828b016131d9565b91505092959891949750929550565b6000806040838503121561333457613333612d28565b5b600061334285828601612d76565b925050602061335385828601612d76565b9150509250929050565b61336681612fa3565b811461337157600080fd5b50565b6000813590506133838161335d565b92915050565b600080604083850312156133a05761339f612d28565b5b60006133ae85828601612d76565b92505060206133bf85828601613374565b9150509250929050565b6133d281612fa3565b82525050565b60007bffffffffffffffffffffffffffffffffffffffffffffffffffffffff82169050919050565b613409816133d8565b82525050565b60408201600082015161342560008501826133c9565b5060208201516134386020850182613400565b50505050565b6000604082019050613453600083018461340f565b92915050565b7f4e487b7100000000000000000000000000000000000000000000000000000000600052602260045260246000fd5b600060028204905060018216806134a057607f821691505b6020821081036134b3576134b2613459565b5b50919050565b7f4e487b7100000000000000000000000000000000000000000000000000000000600052601160045260246000fd5b60006134f382612d8b565b91506134fe83612d8b565b9250828201905080821115613516576135156134b9565b5b92915050565b7f4552433230566f7465733a20667574757265206c6f6f6b757000000000000000600082015250565b6000613552601983612c81565b915061355d8261351c565b602082019050919050565b6000602082019050818103600083015261358181613545565b9050919050565b7f4552433230566f7465733a2062726f6b656e20636c6f636b206d6f6465000000600082015250565b60006135be601d83612c81565b91506135c982613588565b602082019050919050565b600060208201905081810360008301526135ed816135b1565b9050919050565b7f4e487b7100000000000000000000000000000000000000000000000000000000600052604160045260246000fd5b7f4e487b7100000000000000000000000000000000000000000000000000000000600052603260045260246000fd5b7f45524332303a2064656372656173656420616c6c6f77616e63652062656c6f7760008201527f207a65726f000000000000000000000000000000000000000000000000000000602082015250565b60006136ae602583612c81565b91506136b982613652565b604082019050919050565b600060208201905081810360008301526136dd816136a1565b9050919050565b7f4552433230566f7465733a207369676e61747572652065787069726564000000600082015250565b600061371a601d83612c81565b9150613725826136e4565b602082019050919050565b600060208201905081810360008301526137498161370d565b9050919050565b60006080820190506137656000830187612ef5565b6137726020830186612f79565b61377f6040830185612e37565b61378c6060830184612e37565b95945050505050565b7f4552433230566f7465733a20696e76616c6964206e6f6e636500000000000000600082015250565b60006137cb601983612c81565b91506137d682613795565b602082019050919050565b600060208201905081810360008301526137fa816137be565b9050919050565b7f45524332305065726d69743a206578706972656420646561646c696e65000000600082015250565b6000613837601d83612c81565b915061384282613801565b602082019050919050565b600060208201905081810360008301526138668161382a565b9050919050565b600060c0820190506138826000830189612ef5565b61388f6020830188612f79565b61389c6040830187612f79565b6138a96060830186612e37565b6138b66080830185612e37565b6138c360a0830184612e37565b979650505050505050565b7f45524332305065726d69743a20696e76616c6964207369676e61747572650000600082015250565b6000613904601e83612c81565b915061390f826138ce565b602082019050919050565b60006020820190508181036000830152613933816138f7565b9050919050565b60008190508160005260206000209050919050565b60006020601f8301049050919050565b600082821b905092915050565b60006008830261399c7fffffffffffffffffffffffffffffffffffffffffffffffffffffffffffffffff8261395f565b6139a6868361395f565b95508019841693508086168417925050509392505050565b6000819050919050565b60006139e36139de6139d984612d8b565b6139be565b612d8b565b9050919050565b6000819050919050565b6139fd836139c8565b613a11613a09826139ea565b84845461396c565b825550505050565b600090565b613a26613a19565b613a318184846139f4565b505050565b5b81811015613a5557613a4a600082613a1e565b600181019050613a37565b5050565b601f821115613a9a57613a6b8161393a565b613a748461394f565b81016020851015613a83578190505b613a97613a8f8561394f565b830182613a36565b50505b505050565b600082821c905092915050565b6000613abd60001984600802613a9f565b1980831691505092915050565b6000613ad68383613aac565b9150826002028217905092915050565b613aef82612c76565b67ffffffffffffffff811115613b0857613b076135f4565b5b613b128254613488565b613b1d828285613a59565b600060209050601f831160018114613b505760008415613b3e578287015190505b613b488582613aca565b865550613bb0565b601f198416613b5e8661393a565b60005b82811015613b8657848901518255600182019150602085019450602081019050613b61565b86831015613ba35784890151613b9f601f891682613aac565b8355505b6001600288020188555050505b505050505050565b7f45524332303a20617070726f76652066726f6d20746865207a65726f2061646460008201527f7265737300000000000000000000000000000000000000000000000000000000602082015250565b6000613c14602483612c81565b9150613c1f82613bb8565b604082019050919050565b60006020820190508181036000830152613c4381613c07565b9050919050565b7f45524332303a20617070726f766520746f20746865207a65726f20616464726560008201527f7373000000000000000000000000000000000000000000000000000000000000602082015250565b6000613ca6602283612c81565b9150613cb182613c4a565b604082019050919050565b60006020820190508181036000830152613cd581613c99565b9050919050565b7f45524332303a20696e73756666696369656e7420616c6c6f77616e6365000000600082015250565b6000613d12601d83612c81565b9150613d1d82613cdc565b602082019050919050565b60006020820190508181036000830152613d4181613d05565b9050919050565b7f45524332303a207472616e736665722066726f6d20746865207a65726f20616460008201527f6472657373000000000000000000000000000000000000000000000000000000602082015250565b6000613da4602583612c81565b9150613daf82613d48565b604082019050919050565b60006020820190508181036000830152613dd381613d97565b9050919050565b7f45524332303a207472616e7366657220746f20746865207a65726f206164647260008201527f6573730000000000000000000000000000000000000000000000000000000000602082015250565b6000613e36602383612c81565b9150613e4182613dda565b604082019050919050565b60006020820190508181036000830152613e6581613e29565b9050919050565b7f45524332303a207472616e7366657220616d6f756e742065786365656473206260008201527f616c616e63650000000000000000000000000000000000000000000000000000602082015250565b6000613ec8602683612c81565b9150613ed382613e6c565b604082019050919050565b60006020820190508181036000830152613ef781613ebb565b9050919050565b6000613f0982612d8b565b9150613f1483612d8b565b9250828203905081811115613f2c57613f2b6134b9565b5b92915050565b7f53616665436173743a2076616c756520646f65736e27742066697420696e203360008201527f3220626974730000000000000000000000000000000000000000000000000000602082015250565b6000613f8e602683612c81565b9150613f9982613f32565b604082019050919050565b60006020820190508181036000830152613fbd81613f81565b9050919050565b7f53616665436173743a2076616c756520646f65736e27742066697420696e203460008201527f3820626974730000000000000000000000000000000000000000000000000000602082015250565b6000614020602683612c81565b915061402b82613fc4565b604082019050919050565b6000602082019050818103600083015261404f81614013565b9050919050565b600081519050919050565b6000819050602082019050919050565b600061407d8251612eeb565b80915050919050565b600061409182614056565b8261409b84614061565b90506140a681614071565b925060208210156140e6576140e17fffffffffffffffffffffffffffffffffffffffffffffffffffffffffffffffff8360200360080261395f565b831692505b5050919050565b600060a0820190506141026000830188612ef5565b61410f6020830187612ef5565b61411c6040830186612ef5565b6141296060830185612e37565b6141366080830184612f79565b9695505050505050565b7f4e487b7100000000000000000000000000000000000000000000000000000000600052601260045260246000fd5b600061417a82612d8b565b915061418583612d8b565b92508261419557614194614140565b5b828204905092915050565b7f4552433230566f7465733a20746f74616c20737570706c79207269736b73206f60008201527f766572666c6f77696e6720766f74657300000000000000000000000000000000602082015250565b60006141fc603083612c81565b9150614207826141a0565b604082019050919050565b6000602082019050818103600083015261422b816141ef565b9050919050565b60006040820190506142476000830185612e37565b6142546020830184612e37565b9392505050565b60006080820190506142706000830187612ef5565b61427d6020830186612ec1565b61428a6040830185612ef5565b6142976060830184612ef5565b95945050505050565b7f4e487b7100000000000000000000000000000000000000000000000000000000600052602160045260246000fd5b7f45434453413a20696e76616c6964207369676e61747572650000000000000000600082015250565b6000614305601883612c81565b9150614310826142cf565b602082019050919050565b60006020820190508181036000830152614334816142f8565b9050919050565b7f45434453413a20696e76616c6964207369676e6174757265206c656e67746800600082015250565b6000614371601f83612c81565b915061437c8261433b565b602082019050919050565b600060208201905081810360008301526143a081614364565b9050919050565b7f45434453413a20696e76616c6964207369676e6174757265202773272076616c60008201527f7565000000000000000000000000000000000000000000000000000000000000602082015250565b6000614403602283612c81565b915061440e826143a7565b604082019050919050565b60006020820190508181036000830152614432816143f6565b9050919050565b7f45524332303a206d696e7420746f20746865207a65726f206164647265737300600082015250565b600061446f601f83612c81565b915061447a82614439565b602082019050919050565b6000602082019050818103600083015261449e81614462565b9050919050565b7f45524332303a206275726e2066726f6d20746865207a65726f2061646472657360008201527f7300000000000000000000000000000000000000000000000000000000000000602082015250565b6000614501602183612c81565b915061450c826144a5565b604082019050919050565b60006020820190508181036000830152614530816144f4565b9050919050565b7f45524332303a206275726e20616d6f756e7420657863656564732062616c616e60008201527f6365000000000000000000000000000000000000000000000000000000000000602082015250565b6000614593602283612c81565b915061459e82614537565b604082019050919050565b600060208201905081810360008301526145c281614586565b9050919050565b7f53616665436173743a2076616c756520646f65736e27742066697420696e203260008201527f3234206269747300000000000000000000000000000000000000000000000000602082015250565b6000614625602783612c81565b9150614630826145c9565b604082019050919050565b6000602082019050818103600083015261465481614618565b905091905056fea264697066735822122087e4ae18f87db44f96697668ba834609780ea7417ef7cfc7d848450e6a14ccaf64736f6c63430008120033",
    "linkReferences": {},
    "deployedLinkReferences": {}
}